:100000000C9435000C945D000C945D000C945D0024
:100010000C945D000C945D000C945D000C945D00EC
:100020000C945D000C945D000C945D000C945D00DC
:100030000C945D000C945D000C945D000C945D00CC
:100040000C9410020C945D000C94DE010C94B80129
:100050000C945D000C945D000C945D000C945D00AC
:100060000C945D000C945D004A0411241FBECFEF78
:10007000D8E0DEBFCDBF11E0A0E0B1E0E4E3FCE0FA
:1000800002C005900D92A631B107D9F721E0A6E193
:10009000B1E001C01D92A43CB207E1F710E0C5E356
:1000A000D0E004C02197FE010E941206C433D1079C
:1000B000C9F70E945A020C9418060C940000AF92E3
:1000C000BF92CF92DF92EF92FF920F931F93CF9345
:1000D000DF936C017B018B01040F151FEB015E01A7
:1000E000AE18BF08C017D10759F06991D601ED913C
:1000F000FC910190F081E02DC6010995892B79F7DB
:10010000C501DF91CF911F910F91FF90EF90DF908C
:10011000CF90BF90AF900895FC01538D448D252F53
:1001200030E0842F90E0821B930B541710F0CF9691
:10013000089501970895FC01918D828D981761F0C3
:10014000A28DAE0FBF2FB11D5D968C91928D9F5FDA
:100150009F73928F90E008958FEF9FEF0895FC01B9
:10016000918D828D981731F0828DE80FF11D858D6C
:1001700090E008958FEF9FEF0895FC01918D228DFF
:10018000892F90E0805C9F4F821B91098F73992784
:10019000089587E291E00E94BD0021E0892B09F4D7
:1001A00020E0822F089580E090E0892B29F00E94C2
:1001B000C90081110C9400000895FC01A48DA80FC2
:1001C000B92FB11DA35ABF4F2C91848D90E0019699
:1001D0008F739927848FA689B7892C93A089B189B9
:1001E0008C91837080648C93938D848D981306C05A
:1001F0000288F389E02D80818F7D80830895EF92BE
:10020000FF920F931F93CF93DF93EC0181E0888FD0
:100210009B8D8C8D98131AC0E889F989808185FFA0
:1002200015C09FB7F894EE89FF896083E889F98942
:1002300080818370806480839FBF81E090E0DF9144
:10024000CF911F910F91FF90EF900895F62E0B8D97
:1002500010E00F5F1F4F0F731127E02E8C8D8E1152
:100260000CC00FB607FCFACFE889F989808185FFB9
:10027000F5CFCE010E94DD00F1CFEB8DEC0FFD2F0D
:10028000F11DE35AFF4FF0829FB7F8940B8FEA8974
:10029000FB8980818062CFCFCF93DF93682F87E285
:1002A00091E00E94FF00EC0142E050E062E171E069
:1002B00087E291E00E945F008C0F9D1FDF91CF913C
:1002C0000895CF93DF93EC01888D8823B9F0AA8934
:1002D000BB89E889F9898C9185FD03C0808186FD01
:1002E0000DC00FB607FCF7CF8C9185FFF2CF808150
:1002F00085FFEDCFCE010E94DD00E9CFDF91CF91E8
:1003000008958E50806480937C0080917A00806490
:1003100080937A0080917A0086FDFCCF80917800EE
:100320009091790008953FB7F89480911B019091C6
:100330001C01A0911D01B0911E0126B5A89B05C00E
:100340002F3F19F00196A11DB11D3FBFBA2FA92F54
:10035000982F8827BC01CD01620F711D811D911D51
:1003600043E0660F771F881F991F4A95D1F70895BC
:100370001F920F920FB60F9211242F933F934F931A
:100380005F936F937F938F939F93AF93BF93EF93FD
:10039000FF9387E291E00E94DD00FF91EF91BF9112
:1003A000AF919F918F917F916F915F914F913F910D
:1003B0002F910F900FBE0F901F9018951F920F92C4
:1003C0000FB60F9211242F938F939F93EF93FF9368
:1003D000E0913701F09138018081E0913D01F09189
:1003E0003E0182FD1BC09081809140018F5F8F7321
:1003F00020914101821741F0E0914001F0E0E95D78
:10040000FE4F958F80934001FF91EF919F918F91C7
:100410002F910F900FBE0F901F9018958081F4CFF1
:100420001F920F920FB60F9211242F933F938F9329
:100430009F93AF93BF938091170190911801A09162
:100440001901B0911A013091160126E0230F2D37C2
:1004500058F50296A11DB11D209316018093170136
:1004600090931801A0931901B0931A0180911B0178
:1004700090911C01A0911D01B0911E010196A11D3A
:10048000B11D80931B0190931C01A0931D01B0939B
:100490001E01BF91AF919F918F913F912F910F902E
:1004A0000FBE0F901F90189529E8230F0396A11DEA
:1004B000B11DD2CF789484B5826084BD84B581604B
:1004C00084BD85B5826085BD85B5816085BD80911F
:1004D0006E00816080936E00109281008091810097
:1004E000826080938100809181008160809381008F
:1004F000809180008160809380008091B100846051
:100500008093B1008091B00081608093B0008091B1
:100510007A00846080937A0080917A008260809370
:100520007A0080917A008E7F80937A0080917A00A1
:10053000806880937A001092C100E0913701F091B9
:10054000380182E08083E0913301F0913401108220
:10055000E0913501F091360187E6808310923F01EA
:10056000E0913B01F0913C0186E08083E09139010C
:10057000F0913A01808180618083E0913901F091AE
:100580003A01808188608083E0913901F0913A01DD
:10059000808180688083E0913901F0913A01808107
:1005A0008F7D8083C0E0D0E08EE00E948101BC019D
:1005B000990F880B990B0E94F00420E030EC4FEF6C
:1005C00053E40E947C0420E030E048E452E40E94BE
:1005D000A5054B015C018092230190922401A09219
:1005E0002501B09226018FE00E948101BC01990F84
:1005F000880B990B0E94F00420E030EC4FEF53E49D
:100600000E947C0420E030E048E452E40E94A5050A
:100610006B017C01C0921F01D0922001E092210168
:10062000F092220120E030E048EE51E4C501B4012F
:100630000E94A00518160CF050C020E030E048E001
:1006400052E4C501B4010E94770487FF46C020E050
:1006500030E048EE51E4C701B6010E94A00518162B
:10066000E4F520E030E048E052E4C701B6010E9422
:10067000770487FF32C08FE40E944C010E949301EF
:100680004B015C0188ECC82ED12CE12CF12C0E948E
:100690009301681979098A099B09683E73408105AD
:1006A0009105A8F321E0C21AD108E108F10888EE0B
:1006B000880E83E0981EA11CB11CC114D104E10472
:1006C000F10429F7209709F46FCF0E94C90088230D
:1006D00009F46ACF0E94000067CF20E030E048E0D4
:1006E00052E4C501B4010E94A00518160CF520E0E3
:1006F00030E048E152E4C501B4010E94770487FF6D
:1007000017C020E030E048EE51E4C701B6010E9476
:10071000A00518166CF420E030E048E052E4C70170
:10072000B6010E94770487FF03C086E40E944C0153
:10073000C0902301D0902401E0902501F090260183
:1007400020E030E048E052E4C701B6010E94A00575
:1007500018164CF520E030E040EE51E4C701B60138
:100760000E94770487FF1FC0C0901F01D090200116
:10077000E0902101F090220120E030E040EE51E4D1
:10078000C701B6010E94A00518166CF420E030E005
:1007900048E052E4C701B6010E94770487FF03C016
:1007A00082E70E944C01C0902301D0902401E09088
:1007B0002501F090260120E030E048EE51E4C70129
:1007C000B6010E94A00518164CF520E030E048E084
:1007D00052E4C701B6010E94770487FF1FC0C09092
:1007E0001F01D0902001E0902101F090220120E033
:1007F00030E048E052E4C701B6010E94A005181697
:100800006CF420E030E048E152E4C701B6010E94F8
:10081000770487FF03C08CE40E944C01C090230141
:10082000D0902401E0902501F090260120E030E0F6
:1008300048EE51E4C701B6010E94A00518160CF05D
:100840001DCF20E030E048E052E4C701B6010E942D
:10085000770487FF13CFC0901F01D0902001E09054
:100860002101F090220120E030E048E052E4C7018D
:10087000B6010E94A00518160CF000CF20E030E071
:1008800048EE51E4C701B6010E94770487FFF6CE17
:1008900082E5F2CEE7E2F1E01382128288EE93E085
:1008A000A0E0B0E084839583A683B78384E091E0E1
:1008B0009183808385EC90E09587848784EC90E039
:1008C0009787868780EC90E0918B808B81EC90E01D
:1008D000938B828B82EC90E0958B848B86EC90E0FE
:1008E000978B868B118E128E138E148E08950E9414
:1008F0002B0508F481E008950E9490040C9466058D
:100900000E945F0558F00E94580540F029F45F3FAF
:1009100029F00C944F0551110C949A050C9455052F
:100920000E94770568F39923B1F3552391F3951B42
:10093000550BBB27AA2762177307840738F09F5F00
:100940005F4F220F331F441FAA1FA9F335D00E2E6D
:100950003AF0E0E832D091505040E695001CCAF7DA
:100960002BD0FE2F29D0660F771F881FBB1F26179D
:1009700037074807AB07B0E809F0BB0B802DBF0174
:10098000FF2793585F4F3AF09E3F510578F00C9443
:100990004F050C949A055F3FE4F3983ED4F3869597
:1009A00077956795B795F7959F5FC9F7880F911D64
:1009B0009695879597F90895E1E0660F771F881F50
:1009C000BB1F621773078407BA0720F0621B730B03
:1009D000840BBA0BEE1F88F7E0950895E89409C0E0
:1009E00097FB3EF490958095709561957F4F8F4F62
:1009F0009F4F9923A9F0F92F96E9BB279395F69578
:100A0000879577956795B795F111F8CFFAF4BB0FF5
:100A100011F460FF1BC06F5F7F4F8F4F9F4F16C059
:100A2000882311F096E911C0772321F09EE8872FE3
:100A3000762F05C0662371F096E8862F70E060E09F
:100A40002AF09A95660F771F881FDAF7880F969518
:100A5000879597F90895990F0008550FAA0BE0E8BC
:100A6000FEEF16161706E807F907C0F01216130670
:100A7000E407F50798F0621B730B840B950B39F4B0
:100A80000A2661F0232B242B252B21F408950A2616
:100A900009F4A140A6958FEF811D811D089597F956
:100AA0009F6780E870E060E008959FEF80EC089514
:100AB00000240A941616170618060906089500243D
:100AC0000A9412161306140605060895092E0394B7
:100AD000000C11F4882352F0BB0F40F4BF2B11F42B
:100AE00060FF04C06F5F7F4F8F4F9F4F089557FD8A
:100AF0009058440F551F59F05F3F71F04795880F8C
:100B000097FB991F61F09F3F79F087950895121622
:100B100013061406551FF2CF4695F1DF08C01616CE
:100B200017061806991FF1CF86957105610508947F
:100B30000895E894BB2766277727CB0197F9089596
:100B40000E942B0508F48FEF08950E94B8050C94BD
:100B500066050E94580538F00E945F0520F0952335
:100B600011F00C944F050C94550511240C949A0522
:100B70000E94770570F3959FC1F3950F50E0551FC4
:100B8000629FF001729FBB27F00DB11D639FAA27E2
:100B9000F00DB11DAA1F649F6627B00DA11D661F31
:100BA000829F2227B00DA11D621F739FB00DA11D52
:100BB000621F839FA00D611D221F749F3327A00D0C
:100BC000611D231F849F600D211D822F762F6A2FA8
:100BD00011249F5750409AF0F1F088234AF0EE0F0D
:100BE000FF1FBB1F661F771F881F91505040A9F73A
:100BF0009E3F510580F00C944F050C949A055F3F81
:100C0000E4F3983ED4F3869577956795B795F79575
:100C1000E7959F5FC1F7FE2B880F911D96958795ED
:100C200097F90895EE0FFF1F0590F491E02D0994B8
:040C3000F894FFCF66
:100C340000000000FF005F008C006101BD009B000C
:060C4400AF000D0A0000E4
:00000001FF
