:10080000E4F5A0F5B075A04975B0497F64FE120803
:100810007875A04C12087475A04A12087475A0610E
:1008200012087475A05112087475A0091208747525
:10083000A08912087475A04912087475A04912089D
:100840007475B00912087475B089120874120871B1
:1008500012087112087175B04C12087475B04A1202
:10086000087475B06112087475B0511208740208EA
:010870000087
:0708710075B0497F647E00B1
:10087800E4FDFCC3ED9FEC9E5015E4FBFA0BBB00B6
:0F088800010ABA04F8BBFBF50DBD00010C80E4BA
:01089700223E
:030000000208985B
:0C089800787FE4F6D8FD758107020800A7
:00000001FF
