:100000000C945D000C9485000C9485000C94850084
:100010000C9485000C9485000C9485000C9485004C
:100020000C9485000C9485000C9485000C9485003C
:100030000C9485000C9485000C9485000C9485002C
:100040000C941C020C9485000C948C020C94660297
:100050000C9485000C9485000C9485000C9485000C
:100060000C9485000C94850000000008000201003B
:100070000003040700000000000000000000000072
:10008000250028002B0000000000240027002A0083
:10009000040404040404040402020202020203032E
:1000A0000303030301020408102040800102040836
:1000B0001020010204081020C80311241FBECFEF36
:1000C000D8E0DEBFCDBF11E0A0E0B1E0EAEFF7E09D
:1000D00002C005900D92A633B107D9F721E0A6E33F
:1000E000B1E001C01D92AC3DB207E1F710E0CDE5F3
:1000F000D0E004C02197FE010E94F503CC35D10762
:10010000C9F70E94BE020C94FB030C94000090E01F
:10011000FC01EC55FF4F249180579F4FFC018491C7
:10012000882399F090E0880F991FFC01EA57FF4F50
:10013000A591B491FC01E458FF4F859194918FB73C
:10014000F894EC91E22BEC938FBF0895AF92BF929D
:10015000CF92DF92EF92FF920F931F93CF93DF9393
:100160006C017B018B01040F151FEB015E01AE18C2
:10017000BF08C017D10759F06991D601ED91FC91E4
:100180000190F081E02DC6010995892B79F7C50111
:10019000DF91CF911F910F91FF90EF90DF90CF9063
:1001A000BF90AF900895FC01538D448D252F30E012
:1001B000842F90E0821B930B541710F0CF96089574
:1001C00001970895FC01918D828D981761F0A28DA1
:1001D000AE0FBF2FB11D5D968C91928D9F5F9F7367
:1001E000928F90E008958FEF9FEF0895FC01918D1D
:1001F000828D981731F0828DE80FF11D858D90E08A
:1002000008958FEF9FEF0895FC01918D228D892F26
:1002100090E0805C9F4F821B91098F73992708950E
:100220008FE391E00E94040121E0892B09F420E092
:10023000822F089580E090E0892B29F00E94100120
:1002400081110C9400000895FC01A48DA80FB92F12
:10025000B11DA35ABF4F2C91848D90E001968F73EE
:100260009927848FA689B7892C93A089B1898C910D
:10027000837080648C93938D848D981306C002885C
:10028000F389E02D80818F7D80830895EF92FF9226
:100290000F931F93CF93DF93EC0181E0888F9B8DA9
:1002A0008C8D98131AC0E889F989808185FF15C063
:1002B0009FB7F894EE89FF896083E889F989808186
:1002C0008370806480839FBF81E090E0DF91CF9155
:1002D0001F910F91FF90EF900895F62E0B8D10E077
:1002E0000F5F1F4F0F731127E02E8C8D8E110CC0E6
:1002F0000FB607FCFACFE889F989808185FFF5CF31
:10030000CE010E942401F1CFEB8DEC0FFD2FF11DEA
:10031000E35AFF4FF0829FB7F8940B8FEA89FB896D
:1003200080818062CFCFCF93DF93EC01888D8823CB
:10033000B9F0AA89BB89E889F9898C9185FD03C048
:10034000808186FD0DC00FB607FCF7CF8C9185FF2D
:10035000F2CF808185FFEDCFCE010E942401E9CF4D
:10036000DF91CF91089590E0FC01E859FF4F24916F
:10037000FC01EC55FF4F3491FC01E057FF4FE49135
:10038000EE23C9F0222339F0233001F1A8F4213003
:1003900019F1223029F1F0E0EE0FFF1FE458FF4F72
:1003A000A591B4918FB7F894EC91611126C0309566
:1003B0003E233C938FBF08952730A9F02830C9F021
:1003C000243049F7809180008F7D03C080918000A8
:1003D0008F7780938000DFCF84B58F7784BDDBCFAC
:1003E00084B58F7DFBCF8091B0008F778093B00074
:1003F000D2CF8091B0008F7DF9CF3E2BDACFCF9353
:10040000DF93FC0101900020E9F73197AF01481B11
:10041000590BBC018FE391E00E94A600EC0142E081
:1004200050E062E171E08FE391E00E94A6008C0F42
:100430009D1FDF91CF9108951F920F920FB60F92DB
:1004400011242F933F938F939F93AF93BF938091EA
:100450003B0190913C01A0913D01B0913E01309152
:100460003A0126E0230F2D3758F50296A11DB11D44
:1004700020933A0180933B0190933C01A0933D016E
:10048000B0933E018091360190913701A0913801DF
:10049000B09139010196A11DB11D80933601909351
:1004A0003701A0933801B0933901BF91AF919F916B
:1004B0008F913F912F910F900FBE0F901F90189525
:1004C00029E8230F0396A11DB11DD2CF1F920F92D1
:1004D0000FB60F9211242F933F934F935F936F9317
:1004E0007F938F939F93AF93BF93EF93FF938FE38C
:1004F00091E00E942401FF91EF91BF91AF919F91F4
:100500008F917F916F915F914F913F912F910F90BC
:100510000FBE0F901F9018951F920F920FB60F925B
:1005200011242F938F939F93EF93FF93E0914F01AB
:10053000F09150018081E0915501F091560182FDCA
:100540001BC09081809158018F5F8F73209159015A
:10055000821741F0E0915801F0E0E15CFE4F958F89
:1005600080935801FF91EF919F918F912F910F9060
:100570000FBE0F901F9018958081F4CF789484B5AA
:10058000826084BD84B5816084BD85B5826085BD8F
:1005900085B5816085BD80916E00816080936E001D
:1005A000109281008091810082608093810080910F
:1005B00081008160809381008091800081608093C0
:1005C00080008091B10084608093B1008091B00080
:1005D00081608093B00080917A00846080937A007B
:1005E00080917A00826080937A0080917A008E7F79
:1005F00080937A0080917A00806880937A001092CC
:10060000C10087E00E94870086E00E94870085E0A5
:100610000E94870084E00E948700E0914F01F091E2
:10062000500182E08083E0914B01F0914C011082F7
:10063000E0914D01F0914E0187E6808310925701C1
:10064000E0915301F091540186E08083E0915101E3
:10065000F0915201808180618083E0915101F0919D
:100660005201808188608083E0915101F0915201B4
:10067000808180688083E0915101F09152018081F6
:100680008F7D8083C0E0D0E08FE391E00E94040181
:1006900018161906DCF48FE391E00E94E20086341C
:1006A0009105E9F461E087E00E94B30160E086E033
:1006B0000E94B30161E085E00E94B30160E084E044
:1006C0000E94B30185E191E00E94FF012097E1F2D1
:1006D0000E9410018823C1F20E940000D5CF82370A
:1006E000910599F460E087E00E94B30161E086E043
:1006F0000E94B30160E085E00E94B30161E084E004
:100700000E94B3018DE191E0DFCF8C34910599F423
:1007100061E087E00E94B30160E086E00E94B301DF
:1007200060E085E00E94B30160E084E00E94B301D4
:1007300085E291E0C9CF8235910599F460E087E0C8
:100740000E94B30160E086E00E94B30161E085E0B1
:100750000E94B30160E084E00E94B3018AE291E06C
:10076000B3CF8F34910509F0B1CF60E087E00E94EC
:10077000B30160E086E00E94B30160E085E00E9482
:10078000B30160E084E00E94B30180E391E09CCF7C
:10079000EFE3F1E01382128288EE93E0A0E0B0E094
:1007A00084839583A683B78384E091E091838083DB
:1007B00085EC90E09587848784EC90E09787868726
:1007C00080EC90E0918B808B81EC90E0938B828B1E
:1007D00082EC90E0958B848B86EC90E0978B868BF7
:1007E000118E128E138E148E0895EE0FFF1F05903A
:0A07F000F491E02D0994F894FFCF76
:1007FA00000000004601A600D30093010401E200B4
:10080A00F6000D0A00666F727761726400526576AF
:10081A0065727365004C6566740052696768740096
:06082A0053746F70000022
:00000001FF
