:1008D70064617461207265632A6E0073797374654D
:0208E7006D00A2
:10080000E4F580C2A0C2A1C2A27589207598507576
:100810008DFDD28E7F381208F57F0F1208F57F0606
:100820001208F57F011208F57F801208F57BFF7A28
:100830000879D77D011208577F901208F57BFF7A5F
:100840000879E27D061208573098FD859908C2980C
:07085000AF081208FF80F160
:0808FF008F801208B1C2A22291
:0A08B100D2A0C2A1D2A27F057E00F2
:1008BB00E4FDEDC39FE49E5012E4FCECC394FB7487
:0B08CB0080948450030C80F30D80E744
:0108D60022FF
:0A08F5008F80C2A01208B3C2A22235
:080857008B098A0A890B8D0C44
:10085F00E4F50DE50DC3950C501AAB09AA0AA90BC7
:10086F00850D82758300120884F5801208B1C2A22B
:04087F00050D80DF04
:010883002252
:030000000208E90A
:0C08E900787FE4F6D8FD75810D02080050
:10088400BB010CE58229F582E5833AF583E0225029
:1008940006E92582F8E622BBFE06E92582F8E22273
:0D08A400E58229F582E5833AF583E493228D
:00000001FF
