:100000000C9462000C948A000C948A000C948A0070
:100010000C948A000C948A000C948A000C948A0038
:100020000C948A000C948A000C948A000C948A0028
:100030000C948A000C948A000C948A000C948A0018
:100040000C940E040C948A000C94DC030C94B603FC
:100050000C948A000C948A000C948A000C948A00F8
:100060000C948A000C948A000000000024002700F1
:100070002A0000000000250028002B0000000000DE
:1000800023002600290004040404040404040202DA
:100090000202020203030303030301020408102007
:1000A0004080010204081020010204081020000012
:1000B0000008000201000003040700000000000027
:1000C0000000460711241FBECFEFD8E0DEBFCDBF32
:1000D00013E0A0E0B1E0E2EBF3E102C005900D9285
:1000E000A633B107D9F723E0A6E3B3E001C01D9220
:1000F000AF3EB207E1F710E0C2E6D0E004C02197BE
:10010000FE010E94D109C136D107C9F70E945804E7
:100110000C94D7090C940000AF92BF92CF92DF925B
:10012000EF92FF920F931F93CF93DF936C017B01AC
:100130008B01040F151FEB015E01AE18BF08C0173D
:10014000D10759F06991D601ED91FC910190F081B0
:10015000E02DC6010995892B79F7C501DF91CF9173
:100160001F910F91FF90EF90DF90CF90BF90AF90D5
:100170000895FC01538D448D252F30E0842F90E0AD
:10018000821B930B541710F0CF9608950197089592
:10019000FC01918D828D981761F0A28DAE0FBF2F5B
:1001A000B11D5D968C91928D9F5F9F73928F90E0B1
:1001B00008958FEF9FEF0895FC01918D828D981720
:1001C00031F0828DE80FF11D858D90E008958FEF5D
:1001D0009FEF0895FC01918D228D892F90E0805C26
:1001E0009F4F821B91098F739927089582E593E0B1
:1001F0000E94EA0021E0892B09F420E0822F089573
:1002000080E090E0892B29F00E94F60081110C9487
:1002100000000895FC01A48DA80FB92FB11DA35AA9
:10022000BF4F2C91848D90E001968F739927848F16
:10023000A689B7892C93A089B1898C918370806439
:100240008C93938D848D981306C00288F389E02DDA
:1002500080818F7D80830895EF92FF920F931F938B
:10026000CF93DF93EC0181E0888F9B8D8C8D981369
:100270001AC0E889F989808185FF15C09FB7F89475
:10028000EE89FF896083E889F989808183708064C1
:1002900080839FBF81E090E0DF91CF911F910F910C
:1002A000FF90EF900895F62E0B8D10E00F5F1F4F1B
:1002B0000F731127E02E8C8D8E110CC00FB607FC2A
:1002C000FACFE889F989808185FFF5CFCE010E94B8
:1002D0000A01F1CFEB8DEC0FFD2FF11DE35AFF4F1B
:1002E000F0829FB7F8940B8FEA89FB898081806246
:1002F000CFCFCF93DF93EC01888D8823B9F0AA8903
:10030000BB89E889F9898C9185FD03C0808186FDD0
:100310000DC00FB607FCF7CF8C9185FFF2CF80811F
:1003200085FFEDCFCE010E940A01E9CFDF91CF9189
:100330000895833081F028F4813099F08230A9F05B
:1003400008958730A9F08830C9F08430B1F48091E5
:1003500080008F7D03C0809180008F778093800024
:10036000089584B58F7784BD089584B58F7DFBCFC4
:100370008091B0008F778093B00008958091B00095
:100380008F7DF9CF1F93CF93DF93282F30E0F901B2
:10039000E255FF4F8491F901E656FF4FD491F901E0
:1003A000EA57FF4FC491CC23A9F0162F81110E9468
:1003B0009901EC2FF0E0EE0FFF1FEE58FF4FA591D3
:1003C000B4918FB7F894EC91111108C0D095DE2349
:1003D000DC938FBFDF91CF911F910895DE2BF8CF73
:1003E000CF93DF9390E0FC01E656FF4F24918A57AC
:1003F0009F4FFC0184918823D1F090E0880F991FD2
:10040000FC01E859FF4FA591B491FC01EE58FF4F54
:10041000C591D49161110EC09FB7F8948C91E22FD1
:10042000E0958E238C932881E223E8839FBFDF91A0
:10043000CF9108958FB7F894EC91E22BEC938FBF96
:10044000F6CF3FB7F89480913B0390913C03A09185
:100450003D03B0913E0326B5A89B05C02F3F19F080
:100460000196A11DB11D3FBFBA2FA92F982F882734
:10047000BC01CD01620F711D811D911D42E0660F0F
:10048000771F881F991F4A95D1F708958F929F92E1
:10049000AF92BF92CF92DF92EF92FF926B017C01FD
:1004A0000E9421024B015C01C114D104E104F1045A
:1004B000B9F00E942102681979098A099B09683EEE
:1004C00073408105910580F321E0C21AD108E1084B
:1004D000F10888EE880E83E0981EA11CB11CE4CFC1
:1004E000FF90EF90DF90CF90BF90AF909F908F9054
:1004F0000895FC0101900020E9F73197AF01481BF6
:10050000590BBC0182E593E00C948C008F929F9272
:10051000AF92BF920F931F93CF93DF93CDB7DEB708
:10052000A1970FB6F894DEBF0FBECDBF19A242301F
:1005300008F44AE08E010F5D1F4F842E912CB12CE0
:10054000A12CA50194010E947307E62FB901CA01ED
:10055000EA30F4F4E05DD801EE938D01232B242BD7
:10056000252B79F790E080E0109719F0CD010E94DB
:100570007902A1960FB6F894DEBF0FBECDBFDF9112
:10058000CF911F910F91BF90AF909F908F90089542
:10059000E95CE1CFCF93DF930E947902EC0182E125
:1005A00091E00E9479028C0F9D1FDF91CF910895F9
:1005B0000C9479024F925F926F927F928F929F92EA
:1005C000AF92BF92CF92DF92EF92FF920F931F9361
:1005D000CF936B017C01742EAC019B010E94CC096E
:1005E000882399F085E191E0CF911F910F91FF90C1
:1005F000EF90DF90CF90BF90AF909F908F907F90C3
:100600006F905F904F900C94790246015701E894E7
:10061000B7F82FEF3FEF4FE75FE7C501B4010E9446
:10062000CC0981110DC02FEF3FEF4FE75FE7C50108
:10063000B4010E94020818161CF489E191E0D4CF9D
:100640002FEF3FEF4FE75FE4C701B6010E945A0961
:1006500018161CF48DE191E0C7CF2FEF3FEF4FE765
:100660005FECC701B6010E94020887FDF3CF20E0CE
:1006700030E0A901C701B6010E94020810E000E0C5
:1006800087FF0AC06DE282E593E00E942C018C0195
:10069000F7FAF094F7F8F094C0E060E070E080E0E2
:1006A0009FE37C1641F020E030E040E251E40E94FC
:1006B0000708CF5FF6CFA70196010E9496072B018E
:1006C0003C010E9479084B015C014AE00E948602CD
:1006D0007C01E00EF11ECC23C1F1C501B4010E94E2
:1006E000A8089B01AC01C301B2010E9495074B0110
:1006F0005C016EE282E593E00E942C01E80EF91E97
:10070000C15018F120E030E040E251E4C501B401ED
:100710000E945F092B013C010E9479084B01B12C1A
:10072000A12C4AE0C501B4010E948602E80EF91E20
:10073000C501B4010E94A8089B01AC01C301B2012C
:100740000E9495074B015C01DBCFC701CF911F9140
:100750000F91FF90EF90DF90CF90BF90AF909F9060
:100760008F907F906F905F904F9008951F920F929F
:100770000FB60F9211242F933F934F935F936F9374
:100780007F938F939F93AF93BF93EF93FF9382E5F4
:1007900093E00E940A01FF91EF91BF91AF919F9169
:1007A0008F917F916F915F914F913F912F910F901A
:1007B0000FBE0F901F9018951F920F920FB60F92B9
:1007C00011242F938F939F93EF93FF93E0916203F4
:1007D000F09163038081E0916803F091690382FDE9
:1007E0001BC0908180916B038F5F8F7320916C038E
:1007F000821741F0E0916B03F0E0EE5AFC4F958FC9
:1008000080936B03FF91EF919F918F912F910F90A8
:100810000FBE0F901F9018958081F4CF1F920F92FA
:100820000FB60F9211242F933F938F939F93AF9303
:10083000BF938091370390913803A0913903B09111
:100840003A033091360323E0230F2D3758F50196F4
:10085000A11DB11D20933603809337039093380375
:10086000A0933903B0933A0380913B0390913C03EA
:10087000A0913D03B0913E030196A11DB11D80934F
:100880003B0390933C03A0933D03B0933E03BF9181
:10089000AF919F918F913F912F910F900FBE0F902D
:1008A0001F90189526E8230F0296A11DB11DD2CFE7
:1008B000789484B5826084BD84B5816084BD85B53B
:1008C000826085BD85B5816085BD80916E00816047
:1008D00080936E00109281008091810082608093ED
:1008E00081008091810081608093810080918000EF
:1008F0008160809380008091B10084608093B1001A
:100900008091B00081608093B00080917A00846013
:1009100080937A0080917A00826080937A0080913F
:100920007A00816080937A0080917A008068809359
:100930007A001092C10061E08BE00E94F00161E05A
:100940008DE00E94F00161E08CE00E94F00161E026
:100950008AE00E94F00160E088E00E94F00161E01E
:1009600089E00E94F001E0916203F091630382E06C
:100970008083E0915E03F0915F031082E091600359
:10098000F09161038FEC808310926A03E09166031B
:10099000F091670386E08083E0916403F091650342
:1009A000808180618083E0916403F09165038081A0
:1009B00088608083E0916403F091650380818068A2
:1009C0008083E0916403F091650380818F7D808353
:1009D00064EF71E080E090E00E9446023BE9232E44
:1009E000312C412C40EC542E49E7642E44EC742EFB
:1009F000CC24C394D12C81E291E00E94CA028CE6FF
:100A000091E00E94CA0281E480937C0080917A0088
:100A1000806480937A0080917A0086FDFCCF80917B
:100A2000780060917900762F682F072E000C880BD4
:100A3000990B0E94AA082AE939E94CE453E40E9480
:100A4000070820E030E040EA51E40E945F0960932B
:100A50004E0370934F03809350039093510388E3A8
:100A600091E00E94D80260914E0370914F038091F3
:100A700050039091510342E00E94DA028CE591E02C
:100A80000E94CA0220E030E048EC51E460914E033D
:100A900070914F0380915003909151030E9402087E
:100AA00087FF62C080E691E00E94D8028FE691E065
:100AB0000E94D80261E08BE00E94C20189E891E0C7
:100AC0000E94CA0286E691E00E94CA028DE991E086
:100AD0000E94CA02E8EAF0E0D491E4E9F0E08491EF
:100AE000E82FF0E0EE0FFF1FE458FF4F059114913F
:100AF0001092490310924A0310924B0310924C0338
:100B000010924D0361E08EE00E94F00160E08EE003
:100B10000E94C20162E170E080E090E00E94460223
:100B200061E08EE00E94C201C1010197F1F760E02F
:100B30008EE00E94F00180E991E0F80120812D23F0
:100B4000C1F40197D1F74092410350924203609261
:100B500043037092440340924503509246036092CF
:100B600047037092480367C060E08BE00E94C201B7
:100B7000A9CF80E991E0F80120812D2319F0019798
:100B8000D1F7E1CF98E2F92EC0E8E12C80E991E0BD
:100B9000F80120812D2319F40197D1F7D4CF0E94B9
:100BA00021024B015C0180E991E0F80120812D23B5
:100BB00019F00197D1F7C7CF0E942102681979096E
:100BC0008A099B09693271058105910538F0EE2D7E
:100BD000F0E0EF5BFC4F80858C2B8087C69511F48D
:100BE000E394C0E8FA94F110D1CF61E08EE00E9466
:100BF000F00161E08EE00E94C2016091490370E063
:100C000090E080E00E94A808609341037093420343
:100C1000809343039093440360914B0370E090E012
:100C200080E00E94A8086093450370934603809378
:100C300047039093480380E691E00E94D80283EC3A
:100C400091E00E94D802609141037091420380912B
:100C500043039091440342E00E94DA028CE591E064
:100C60000E94CA0280E691E00E94D80287ED91E0DE
:100C70000E94D8026091450370914603809147031A
:100C80009091480342E00E94DA028EEE91E00E94C9
:100C9000CA028090410390904203A0904303B09019
:100CA000440320E030E048E452E4C501B4010E946E
:100CB000020887FFA1C061E08DE00E94C20160E0F0
:100CC0008CE00E94C20180E691E00E94D80282EF8F
:100CD00091E00E94D8028DE691E00E94CA028090C5
:100CE000450390904603A0904703B090480320E04E
:100CF00030E040E951E4C501B4010E94020887FFD9
:100D00009CC061E08AE00E94C20180E691E00E94FE
:100D1000D8028EE392E00E94CA028CE892E00E9420
:100D2000CA02E6EBF0E08491E2EAF0E0C491EEE87A
:100D3000F0E0D491DD2379F081110E949901ED2F2B
:100D4000F0E0EE0FFF1FE458FF4FA591B4918C9196
:100D5000C82309F08CC01092400310923F0360E05A
:100D600089E00E94C20180E691E00E94D80289E9F0
:100D700092E00E94CA0280E691E00E94CA0220E04E
:100D800030E040EF51E460914E0370914F03809149
:100D90005003909151030E945A0987FD0EC0809123
:100DA0003F0390914003892B41F48BED92E00E9428
:100DB000CA028AE691E00E94CA028DE293E00E9494
:100DC000D80289EF92E00E94CA0284E191E00E9479
:100DD000CA0264EF71E080E090E00E94460280E089
:100DE00090E0892B09F407CE0E94F600882309F4CD
:100DF00002CE0E940000FFCD20E030E04CE852E43B
:100E0000C501B4010E945A0960E0181674F48DE01F
:100E10000E94C20161E08CE00E94C20180E691E084
:100E20000E94D80288E192E058CF8DE00E94C20172
:100E300060E08CE00E94C20152CF20E030E048E147
:100E400052E4C501B4010E945A0918165CF461E02D
:100E50008DE00E94C20180E691E00E94D80282E605
:100E600092E059CF60E08AE00E94C20156CFD09252
:100E70004003C0923F0380E691E00E94D80261E007
:100E800089E00E94C20183EB92E077CFE2E5F3E0D4
:100E90001382128288EE93E0A0E0B0E08483958311
:100EA000A683B78384E091E09183808385EC90E012
:100EB0009587848784EC90E09787868780EC90E024
:100EC000918B808B81EC90E0938B828B82EC90E015
:100ED000958B848B86EC90E0978B868B118E128E8F
:100EE000138E148E0895A1E21A2EAA1BBB1BFD01BE
:100EF0000DC0AA1FBB1FEE1FFF1FA217B307E407F9
:100F0000F50720F0A21BB30BE40BF50B661F771F50
:100F1000881F991F1A9469F7609570958095909530
:100F20009B01AC01BD01CF0108955058BB27AA27F2
:100F30000E94AD070C9420090E94120938F00E940B
:100F4000190920F039F49F3F19F426F40C940F0985
:100F50000EF4E095E7FB0C940909E92F0E94310992
:100F600058F3BA17620773078407950720F079F4DE
:100F7000A6F50C9453090EF4E0950B2EBA2FA02D74
:100F80000B01B90190010C01CA01A0011124FF2736
:100F9000591B99F0593F50F4503E68F11A16F04031
:100FA000A22F232F342F4427585FF3CF4695379530
:100FB0002795A795F0405395C9F77EF41F16BA0BF5
:100FC000620B730B840BBAF09150A1F0FF0FBB1FA3
:100FD000661F771F881FC2F70EC0BA0F621F731FEC
:100FE000841F48F4879577956795B795F7959E3F49
:100FF00008F0B0CF9395880F08F09927EE0F9795DA
:10100000879508950E94E50808F481E008950E94FC
:101010001B080C9420090E94190958F00E9412091B
:1010200040F029F45F3F29F00C94090951110C9408
:1010300054090C940F090E94310968F39923B1F304
:10104000552391F3951B550BBB27AA2762177307EE
:10105000840738F09F5F5F4F220F331F441FAA1F82
:10106000A9F335D00E2E3AF0E0E832D0915050403E
:10107000E695001CCAF72BD0FE2F29D0660F771FEC
:10108000881FBB1F261737074807AB07B0E809F0D2
:10109000BB0B802DBF01FF2793585F4F3AF09E3F57
:1010A000510578F00C9409090C9454095F3FE4F35E
:1010B000983ED4F3869577956795B795F7959F5F9A
:1010C000C9F7880F911D9695879597F90895E1E0E6
:1010D000660F771F881FBB1F621773078407BA0745
:1010E00020F0621B730B840BBA0BEE1F88F7E095A0
:1010F00008950E94390988F09F5798F0B92F9927D1
:10110000B751B0F0E1F0660F771F881F991F1AF0F2
:10111000BA95C9F714C0B13091F00E945309B1E0FB
:1011200008950C945309672F782F8827B85F39F0FA
:10113000B93FCCF3869577956795B395D9F73EF48B
:1011400090958095709561957F4F8F4F9F4F089533
:10115000E89409C097FB3EF4909580957095619551
:101160007F4F8F4F9F4F9923A9F0F92F96E9BB2707
:101170009395F695879577956795B795F111F8CF83
:10118000FAF4BB0F11F460FF1BC06F5F7F4F8F4FEE
:101190009F4F16C0882311F096E911C0772321F0E4
:1011A0009EE8872F762F05C0662371F096E8862F7C
:1011B00070E060E02AF09A95660F771F881FDAF7D3
:1011C000880F9695879597F90895990F0008550F00
:1011D000AA0BE0E8FEEF16161706E807F907C0F0BD
:1011E00012161306E407F50798F0621B730B840BC5
:1011F000950B39F40A2661F0232B242B252B21F49F
:1012000008950A2609F4A140A6958FEF811D811D3E
:10121000089597F99F6780E870E060E008959FEF78
:1012200080EC089500240A9416161706180609067D
:10123000089500240A94121613061406050608954C
:10124000092E0394000C11F4882352F0BB0F40F4D4
:10125000BF2B11F460FF04C06F5F7F4F8F4F9F4F14
:10126000089557FD9058440F551F59F05F3F71F096
:101270004795880F97FB991F61F09F3F79F08795FD
:101280000895121613061406551FF2CF4695F1DF86
:1012900008C0161617061806991FF1CF8695710516
:1012A000610508940895E894BB2766277727CB014A
:1012B00097F908950E94E50808F48FEF08950E94B9
:1012C00072090C9420090E94120938F00E94190931
:1012D00020F0952311F00C9409090C940F091124A6
:1012E0000C9454090E94310970F3959FC1F3950F36
:1012F00050E0551F629FF001729FBB27F00DB11D9A
:10130000639FAA27F00DB11DAA1F649F6627B00D29
:10131000A11D661F829F2227B00DA11D621F739F12
:10132000B00DA11D621F839FA00D611D221F749F20
:101330003327A00D611D231F849F600D211D822F67
:10134000762F6A2F11249F5750409AF0F1F088238E
:101350004AF0EE0FFF1FBB1F661F771F881F9150BB
:101360005040A9F79E3F510580F00C9409090C9458
:1013700054095F3FE4F3983ED4F3869577956795DB
:10138000B795F795E7959F5FC1F7FE2B880F911DE5
:101390009695879597F908950E94E508880B990B13
:1013A0000895EE0FFF1F0590F491E02D0994F89435
:0213B000FFCF6D
:1013B200000000002C018C00B9007901EA00C8008D
:1013C200DC000D0A006E616E00696E66006F766663
:1013D20000312E536F696C204D6F6973747572659D
:1013E2002053656E736F7200202020202020202061
:1013F2002020202020204D6F697374757265206F44
:101402006620736F696C2825293D20002520200065
:1014120020202020202020202020202020200053B7
:101422006F696C204D6F69737475726520446563D2
:101432007265617365643A2D00576174657220505C
:10144200756D7020696E20537461727400322E447F
:10145200485431312048756D6964697479202620B9
:1014620054656D70657261747572652053656E7333
:101472006F720043757272656E742048756D69648F
:10148200697479203D200043757272656E74205430
:10149200656D7065726174757265203D2000432030
:1014A200200048756D6964697479206973204C4F16
:1014B200573A2D20436F6F6C696E672066616E200C
:1014C200537461727465640048756D6964697479F6
:1014D20020697320484947483A2D20457861757341
:1014E200742066616E205374617274656400546581
:1014F2006D7065726174757265206973204C4F5707
:10150200203A2D4865617465722053746172746566
:10151200640054656D7065726174757265206973DB
:101522002048494748203A2D436F6F6C696E672007
:1015320046616E205374617274656400332E4C44AC
:10154200522053656E736F720052657175697265D0
:10155200642053756E6C6967687420707265736578
:101562006E74004C6F772053756E6C6967687420D7
:101572003A2D4172746966696369616C204C6967CE
:101582006874205374617274656400416C6C20430A
:101592006F6E646974696F6E732041726520436F68
:1015A2006E74726F6C6C6564002A2A2A2A2A2A2AAF
:1015B200416C6C2053656E736F72732026204465F4
:1015C20076696365732041726520576F726B696E2D
:1015D200672050726F7065726C792A2A2A2A2A2A29
:0615E2002A2A2A2A00005B
:00000001FF
